:100000000C9461000C9473000C9473000C947300B6
:100010000C9473000C9473000C9473000C94730094
:100020000C9473000C9473000C9473000C94730084
:100030000C9473000C9473000C9473000C94730074
:100040000C94ED000C9473000C9473000C947300EA
:100050000C9473000C9473000C9473000C94730054
:100060000C9473000C94730000000000240027001F
:100070002A0000000000250028002B0000000000DE
:1000800023002600290004040404040404040202DA
:100090000202020203030303030301020408102007
:1000A0004080010204081020010204081020000012
:1000B0000008000201000003040700000000000027
:1000C000000011241FBECFEFD8E0DEBFCDBF21E07E
:1000D000A0E0B1E001C01D92AA30B207E1F70E9492
:1000E00037010C94D0010C940000833081F028F487
:1000F000813099F08230A9F008958730A9F08830D6
:10010000C9F08430B1F4809180008F7D03C080916C
:1001100080008F7780938000089584B58F7784BDA9
:10012000089584B58F7DFBCF8091B0008F77809349
:10013000B00008958091B0008F7DF9CFCF93DF9309
:10014000E0EBF0E08491ECE9F0E0D491E8E8F0E055
:10015000C491CC23A1F081110E947500EC2FF0E036
:10016000EE0FFF1FE458FF4FA591B491EC91ED23E2
:1001700081E090E009F480E0DF91CF91089580E084
:1001800090E0FACF1F93CF93DF93EBEBF0E09491E5
:10019000E7EAF0E0D491E3E9F0E0C491CC23B9F0D0
:1001A000182F992319F0892F0E947500EC2FF0E089
:1001B000EE0FFF1FEE58FF4FA591B4918FB7F89443
:1001C000EC91111108C0D095DE23DC938FBFDF9135
:1001D000CF911F910895DE2BF8CF1F920F920FB68B
:1001E0000F9211242F933F938F939F93AF93BF93BD
:1001F0008091060190910701A0910801B091090139
:100200003091050123E0230F2D3758F50196A11DEC
:10021000B11D209305018093060190930701A093DF
:100220000801B09309018091010190910201A09110
:100230000301B09104010196A11DB11D809301013C
:1002400090930201A0930301B0930401BF91AF9179
:100250009F918F913F912F910F900FBE0F901F9004
:10026000189526E8230F0296A11DB11DD2CF7894D0
:1002700084B5826084BD84B5816084BD85B58260AB
:1002800085BD85B5816085BD80916E00816080935C
:100290006E001092810080918100826080938100C5
:1002A00080918100816080938100809180008160D5
:1002B000809380008091B10084608093B100809130
:1002C000B00081608093B00080917A008460809358
:1002D0007A0080917A00826080937A0080917A001F
:1002E000816080937A0080917A00806880937A00A0
:1002F0001092C100ECE9F0E02491E8E8F0E084918C
:100300008823C1F090E0880F991FFC01E859FF4F46
:10031000C591D491FC01EE58FF4FA591B4919FB7C0
:10032000F8943881822F809583238883EC91E22B87
:10033000EC939FBFE7EAF0E02491E3E9F0E08491D9
:10034000882399F090E0880F991FFC01E859FF4F2E
:10035000A591B491FC01EE58FF4F859194918FB710
:10036000F894EC91E22BEC938FBF809100010E94F6
:10037000C20011E0C0E0D0E00E949E00892B59F439
:100380000E949E00892BE1F38091000181278093D8
:1003900000010E94C200209779F30E940000ECCF78
:0403A000F894FFCFFF
:00000001FF
